{
  "_format": "hh-sol-artifact-1",
  "contractName": "TeacherLicense",
  "sourceName": "contracts/TeacherLicenseContract.sol",
  "abi": [
    {
      "anonymous": false,
      "inputs": [
        {
          "indexed": false,
          "internalType": "bytes32",
          "name": "byteId",
          "type": "bytes32"
        }
      ],
      "name": "AddTeacherLicense",
      "type": "event"
    },
    {
      "inputs": [
        {
          "internalType": "string",
          "name": "_citizenId",
          "type": "string"
        },
        {
          "internalType": "string",
          "name": "_prefixName",
          "type": "string"
        },
        {
          "internalType": "string",
          "name": "_firstName",
          "type": "string"
        },
        {
          "internalType": "string",
          "name": "_lastName",
          "type": "string"
        },
        {
          "internalType": "string",
          "name": "_prefixNameEng",
          "type": "string"
        },
        {
          "internalType": "string",
          "name": "_firstNameEng",
          "type": "string"
        },
        {
          "internalType": "string",
          "name": "_lastNameEng",
          "type": "string"
        },
        {
          "internalType": "string",
          "name": "_licenseType",
          "type": "string"
        }
      ],
      "name": "addTeacherLicense",
      "outputs": [],
      "stateMutability": "nonpayable",
      "type": "function"
    },
    {
      "inputs": [
        {
          "internalType": "string",
          "name": "_citizenId",
          "type": "string"
        }
      ],
      "name": "getTeacherLicense",
      "outputs": [
        {
          "internalType": "string",
          "name": "",
          "type": "string"
        },
        {
          "internalType": "string",
          "name": "",
          "type": "string"
        },
        {
          "internalType": "string",
          "name": "",
          "type": "string"
        },
        {
          "internalType": "string",
          "name": "",
          "type": "string"
        },
        {
          "internalType": "string",
          "name": "",
          "type": "string"
        },
        {
          "internalType": "string",
          "name": "",
          "type": "string"
        },
        {
          "internalType": "string",
          "name": "",
          "type": "string"
        },
        {
          "internalType": "string",
          "name": "",
          "type": "string"
        },
        {
          "internalType": "uint256",
          "name": "",
          "type": "uint256"
        }
      ],
      "stateMutability": "view",
      "type": "function"
    },
    {
      "inputs": [
        {
          "internalType": "bytes32",
          "name": "",
          "type": "bytes32"
        }
      ],
      "name": "teacherLicenses",
      "outputs": [
        {
          "internalType": "string",
          "name": "citizenId",
          "type": "string"
        },
        {
          "internalType": "string",
          "name": "prefixName",
          "type": "string"
        },
        {
          "internalType": "string",
          "name": "firstName",
          "type": "string"
        },
        {
          "internalType": "string",
          "name": "lastName",
          "type": "string"
        },
        {
          "internalType": "string",
          "name": "prefixNameEng",
          "type": "string"
        },
        {
          "internalType": "string",
          "name": "firstNameEng",
          "type": "string"
        },
        {
          "internalType": "string",
          "name": "lastNameEng",
          "type": "string"
        },
        {
          "internalType": "string",
          "name": "licenseType",
          "type": "string"
        },
        {
          "internalType": "uint256",
          "name": "createdAt",
          "type": "uint256"
        }
      ],
      "stateMutability": "view",
      "type": "function"
    }
  ],
  "bytecode": "0x608060405234801561001057600080fd5b5061144a806100206000396000f3fe608060405234801561001057600080fd5b50600436106100415760003560e01c8063987bdfae14610046578063a430d5f714610062578063f4cf032a1461009a575b600080fd5b610060600480360381019061005b9190610d6d565b6100d2565b005b61007c60048036038101906100779190610f39565b610237565b60405161009199989796959493929190610ffe565b60405180910390f35b6100b460048036038101906100af91906110c3565b6106c5565b6040516100c999989796959493929190610ffe565b60405180910390f35b60006100dd89610bea565b905060006040518061012001604052808b81526020018a815260200189815260200188815260200187815260200186815260200185815260200184815260200142815250905080600080848152602001908152602001600020600082015181600001908161014b9190611318565b5060208201518160010190816101619190611318565b5060408201518160020190816101779190611318565b50606082015181600301908161018d9190611318565b5060808201518160040190816101a39190611318565b5060a08201518160050190816101b99190611318565b5060c08201518160060190816101cf9190611318565b5060e08201518160070190816101e59190611318565b5061010082015181600801559050507f59494a65a71d8fdb7169b5367ea1568c2784f6e5e18ace2d9e883137fdcf1bbd8260405161022391906113f9565b60405180910390a150505050505050505050565b600060205280600052604060002060009150905080600001805461025a9061113b565b80601f01602080910402602001604051908101604052809291908181526020018280546102869061113b565b80156102d35780601f106102a8576101008083540402835291602001916102d3565b820191906000526020600020905b8154815290600101906020018083116102b657829003601f168201915b5050505050908060010180546102e89061113b565b80601f01602080910402602001604051908101604052809291908181526020018280546103149061113b565b80156103615780601f1061033657610100808354040283529160200191610361565b820191906000526020600020905b81548152906001019060200180831161034457829003601f168201915b5050505050908060020180546103769061113b565b80601f01602080910402602001604051908101604052809291908181526020018280546103a29061113b565b80156103ef5780601f106103c4576101008083540402835291602001916103ef565b820191906000526020600020905b8154815290600101906020018083116103d257829003601f168201915b5050505050908060030180546104049061113b565b80601f01602080910402602001604051908101604052809291908181526020018280546104309061113b565b801561047d5780601f106104525761010080835404028352916020019161047d565b820191906000526020600020905b81548152906001019060200180831161046057829003601f168201915b5050505050908060040180546104929061113b565b80601f01602080910402602001604051908101604052809291908181526020018280546104be9061113b565b801561050b5780601f106104e05761010080835404028352916020019161050b565b820191906000526020600020905b8154815290600101906020018083116104ee57829003601f168201915b5050505050908060050180546105209061113b565b80601f016020809104026020016040519081016040528092919081815260200182805461054c9061113b565b80156105995780601f1061056e57610100808354040283529160200191610599565b820191906000526020600020905b81548152906001019060200180831161057c57829003601f168201915b5050505050908060060180546105ae9061113b565b80601f01602080910402602001604051908101604052809291908181526020018280546105da9061113b565b80156106275780601f106105fc57610100808354040283529160200191610627565b820191906000526020600020905b81548152906001019060200180831161060a57829003601f168201915b50505050509080600701805461063c9061113b565b80601f01602080910402602001604051908101604052809291908181526020018280546106689061113b565b80156106b55780601f1061068a576101008083540402835291602001916106b5565b820191906000526020600020905b81548152906001019060200180831161069857829003601f168201915b5050505050908060080154905089565b6060806060806060806060806000806106dd8b610bea565b905060008060008381526020019081526020016000206040518061012001604052908160008201805461070f9061113b565b80601f016020809104026020016040519081016040528092919081815260200182805461073b9061113b565b80156107885780601f1061075d57610100808354040283529160200191610788565b820191906000526020600020905b81548152906001019060200180831161076b57829003601f168201915b505050505081526020016001820180546107a19061113b565b80601f01602080910402602001604051908101604052809291908181526020018280546107cd9061113b565b801561081a5780601f106107ef5761010080835404028352916020019161081a565b820191906000526020600020905b8154815290600101906020018083116107fd57829003601f168201915b505050505081526020016002820180546108339061113b565b80601f016020809104026020016040519081016040528092919081815260200182805461085f9061113b565b80156108ac5780601f10610881576101008083540402835291602001916108ac565b820191906000526020600020905b81548152906001019060200180831161088f57829003601f168201915b505050505081526020016003820180546108c59061113b565b80601f01602080910402602001604051908101604052809291908181526020018280546108f19061113b565b801561093e5780601f106109135761010080835404028352916020019161093e565b820191906000526020600020905b81548152906001019060200180831161092157829003601f168201915b505050505081526020016004820180546109579061113b565b80601f01602080910402602001604051908101604052809291908181526020018280546109839061113b565b80156109d05780601f106109a5576101008083540402835291602001916109d0565b820191906000526020600020905b8154815290600101906020018083116109b357829003601f168201915b505050505081526020016005820180546109e99061113b565b80601f0160208091040260200160405190810160405280929190818152602001828054610a159061113b565b8015610a625780601f10610a3757610100808354040283529160200191610a62565b820191906000526020600020905b815481529060010190602001808311610a4557829003601f168201915b50505050508152602001600682018054610a7b9061113b565b80601f0160208091040260200160405190810160405280929190818152602001828054610aa79061113b565b8015610af45780601f10610ac957610100808354040283529160200191610af4565b820191906000526020600020905b815481529060010190602001808311610ad757829003601f168201915b50505050508152602001600782018054610b0d9061113b565b80601f0160208091040260200160405190810160405280929190818152602001828054610b399061113b565b8015610b865780601f10610b5b57610100808354040283529160200191610b86565b820191906000526020600020905b815481529060010190602001808311610b6957829003601f168201915b505050505081526020016008820154815250509050806000015181602001518260400151836060015184608001518560a001518660c001518760e001518861010001519a509a509a509a509a509a509a509a509a5050509193959799909294969850565b6000808290506000815103610c05576000801b915050610c0e565b60208301519150505b919050565b6000604051905090565b600080fd5b600080fd5b600080fd5b600080fd5b6000601f19601f8301169050919050565b7f4e487b7100000000000000000000000000000000000000000000000000000000600052604160045260246000fd5b610c7a82610c31565b810181811067ffffffffffffffff82111715610c9957610c98610c42565b5b80604052505050565b6000610cac610c13565b9050610cb88282610c71565b919050565b600067ffffffffffffffff821115610cd857610cd7610c42565b5b610ce182610c31565b9050602081019050919050565b82818337600083830152505050565b6000610d10610d0b84610cbd565b610ca2565b905082815260208101848484011115610d2c57610d2b610c2c565b5b610d37848285610cee565b509392505050565b600082601f830112610d5457610d53610c27565b5b8135610d64848260208601610cfd565b91505092915050565b600080600080600080600080610100898b031215610d8e57610d8d610c1d565b5b600089013567ffffffffffffffff811115610dac57610dab610c22565b5b610db88b828c01610d3f565b985050602089013567ffffffffffffffff811115610dd957610dd8610c22565b5b610de58b828c01610d3f565b975050604089013567ffffffffffffffff811115610e0657610e05610c22565b5b610e128b828c01610d3f565b965050606089013567ffffffffffffffff811115610e3357610e32610c22565b5b610e3f8b828c01610d3f565b955050608089013567ffffffffffffffff811115610e6057610e5f610c22565b5b610e6c8b828c01610d3f565b94505060a089013567ffffffffffffffff811115610e8d57610e8c610c22565b5b610e998b828c01610d3f565b93505060c089013567ffffffffffffffff811115610eba57610eb9610c22565b5b610ec68b828c01610d3f565b92505060e089013567ffffffffffffffff811115610ee757610ee6610c22565b5b610ef38b828c01610d3f565b9150509295985092959890939650565b6000819050919050565b610f1681610f03565b8114610f2157600080fd5b50565b600081359050610f3381610f0d565b92915050565b600060208284031215610f4f57610f4e610c1d565b5b6000610f5d84828501610f24565b91505092915050565b600081519050919050565b600082825260208201905092915050565b60005b83811015610fa0578082015181840152602081019050610f85565b60008484015250505050565b6000610fb782610f66565b610fc18185610f71565b9350610fd1818560208601610f82565b610fda81610c31565b840191505092915050565b6000819050919050565b610ff881610fe5565b82525050565b6000610120820190508181036000830152611019818c610fac565b9050818103602083015261102d818b610fac565b90508181036040830152611041818a610fac565b905081810360608301526110558189610fac565b905081810360808301526110698188610fac565b905081810360a083015261107d8187610fac565b905081810360c08301526110918186610fac565b905081810360e08301526110a58185610fac565b90506110b5610100830184610fef565b9a9950505050505050505050565b6000602082840312156110d9576110d8610c1d565b5b600082013567ffffffffffffffff8111156110f7576110f6610c22565b5b61110384828501610d3f565b91505092915050565b7f4e487b7100000000000000000000000000000000000000000000000000000000600052602260045260246000fd5b6000600282049050600182168061115357607f821691505b6020821081036111665761116561110c565b5b50919050565b60008190508160005260206000209050919050565b60006020601f8301049050919050565b600082821b905092915050565b6000600883026111ce7fffffffffffffffffffffffffffffffffffffffffffffffffffffffffffffffff82611191565b6111d88683611191565b95508019841693508086168417925050509392505050565b6000819050919050565b600061121561121061120b84610fe5565b6111f0565b610fe5565b9050919050565b6000819050919050565b61122f836111fa565b61124361123b8261121c565b84845461119e565b825550505050565b600090565b61125861124b565b611263818484611226565b505050565b5b818110156112875761127c600082611250565b600181019050611269565b5050565b601f8211156112cc5761129d8161116c565b6112a684611181565b810160208510156112b5578190505b6112c96112c185611181565b830182611268565b50505b505050565b600082821c905092915050565b60006112ef600019846008026112d1565b1980831691505092915050565b600061130883836112de565b9150826002028217905092915050565b61132182610f66565b67ffffffffffffffff81111561133a57611339610c42565b5b611344825461113b565b61134f82828561128b565b600060209050601f8311600181146113825760008415611370578287015190505b61137a85826112fc565b8655506113e2565b601f1984166113908661116c565b60005b828110156113b857848901518255600182019150602085019450602081019050611393565b868310156113d557848901516113d1601f8916826112de565b8355505b6001600288020188555050505b505050505050565b6113f381610f03565b82525050565b600060208201905061140e60008301846113ea565b9291505056fea2646970667358221220bf162247d3d64852ce09580e66b86b18972894a5c5d36d10bb1a11ac726c65d764736f6c63430008120033",
  "linkReferences": {},
  "deployedLinkReferences": {}
}