{
  "_format": "hh-sol-artifact-1",
  "contractName": "TeacherLicense",
  "sourceName": "contracts/TeacherLicenseContract.sol",
  "abi": [
    {
      "anonymous": false,
      "inputs": [
        {
          "indexed": false,
          "internalType": "string",
          "name": "citizenId",
          "type": "string"
        },
        {
          "indexed": false,
          "internalType": "string",
          "name": "prefixName",
          "type": "string"
        },
        {
          "indexed": false,
          "internalType": "string",
          "name": "firstName",
          "type": "string"
        },
        {
          "indexed": false,
          "internalType": "string",
          "name": "lastName",
          "type": "string"
        },
        {
          "indexed": false,
          "internalType": "string",
          "name": "prefixNameEng",
          "type": "string"
        },
        {
          "indexed": false,
          "internalType": "string",
          "name": "firstNameEng",
          "type": "string"
        },
        {
          "indexed": false,
          "internalType": "string",
          "name": "lastNameEng",
          "type": "string"
        },
        {
          "indexed": false,
          "internalType": "string",
          "name": "licenseType",
          "type": "string"
        },
        {
          "indexed": false,
          "internalType": "uint256",
          "name": "createdAt",
          "type": "uint256"
        }
      ],
      "name": "AddTeacherLicense",
      "type": "event"
    },
    {
      "inputs": [
        {
          "internalType": "string",
          "name": "_citizenId",
          "type": "string"
        },
        {
          "internalType": "string",
          "name": "_prefixName",
          "type": "string"
        },
        {
          "internalType": "string",
          "name": "_firstName",
          "type": "string"
        },
        {
          "internalType": "string",
          "name": "_lastName",
          "type": "string"
        },
        {
          "internalType": "string",
          "name": "_prefixNameEng",
          "type": "string"
        },
        {
          "internalType": "string",
          "name": "_firstNameEng",
          "type": "string"
        },
        {
          "internalType": "string",
          "name": "_lastNameEng",
          "type": "string"
        },
        {
          "internalType": "string",
          "name": "_licenseType",
          "type": "string"
        }
      ],
      "name": "addTeacherLicense",
      "outputs": [],
      "stateMutability": "nonpayable",
      "type": "function"
    },
    {
      "inputs": [
        {
          "internalType": "string",
          "name": "_citizenId",
          "type": "string"
        }
      ],
      "name": "getTeacherLicense",
      "outputs": [
        {
          "internalType": "string",
          "name": "",
          "type": "string"
        },
        {
          "internalType": "string",
          "name": "",
          "type": "string"
        },
        {
          "internalType": "string",
          "name": "",
          "type": "string"
        },
        {
          "internalType": "string",
          "name": "",
          "type": "string"
        },
        {
          "internalType": "string",
          "name": "",
          "type": "string"
        },
        {
          "internalType": "string",
          "name": "",
          "type": "string"
        },
        {
          "internalType": "string",
          "name": "",
          "type": "string"
        },
        {
          "internalType": "string",
          "name": "",
          "type": "string"
        },
        {
          "internalType": "uint256",
          "name": "",
          "type": "uint256"
        }
      ],
      "stateMutability": "view",
      "type": "function"
    }
  ],
  "bytecode": "0x608060405234801561001057600080fd5b50610f22806100206000396000f3fe608060405234801561001057600080fd5b50600436106100365760003560e01c8063987bdfae1461003b578063f4cf032a14610057575b600080fd5b6100556004803603810190610050919061087f565b61008f565b005b610071600480360381019061006c9190610a15565b610202565b60405161008699989796959493929190610af6565b60405180910390f35b60006040518061012001604052808a81526020018981526020018881526020018781526020018681526020018581526020018481526020018381526020014281525090508060008a6040516100e49190610bf7565b908152602001604051809103902060008201518160000190816101079190610e1a565b50602082015181600101908161011d9190610e1a565b5060408201518160020190816101339190610e1a565b5060608201518160030190816101499190610e1a565b50608082015181600401908161015f9190610e1a565b5060a08201518160050190816101759190610e1a565b5060c082015181600601908161018b9190610e1a565b5060e08201518160070190816101a19190610e1a565b5061010082015181600801559050507feb54313dbdb0889ce9cdd4d8e24d5452366dd46be2a2035b134bc72f4faa5a148989898989898989426040516101ef99989796959493929190610af6565b60405180910390a1505050505050505050565b60608060608060608060608060008060008b6040516102219190610bf7565b90815260200160405180910390206040518061012001604052908160008201805461024b90610c3d565b80601f016020809104026020016040519081016040528092919081815260200182805461027790610c3d565b80156102c45780601f10610299576101008083540402835291602001916102c4565b820191906000526020600020905b8154815290600101906020018083116102a757829003601f168201915b505050505081526020016001820180546102dd90610c3d565b80601f016020809104026020016040519081016040528092919081815260200182805461030990610c3d565b80156103565780601f1061032b57610100808354040283529160200191610356565b820191906000526020600020905b81548152906001019060200180831161033957829003601f168201915b5050505050815260200160028201805461036f90610c3d565b80601f016020809104026020016040519081016040528092919081815260200182805461039b90610c3d565b80156103e85780601f106103bd576101008083540402835291602001916103e8565b820191906000526020600020905b8154815290600101906020018083116103cb57829003601f168201915b5050505050815260200160038201805461040190610c3d565b80601f016020809104026020016040519081016040528092919081815260200182805461042d90610c3d565b801561047a5780601f1061044f5761010080835404028352916020019161047a565b820191906000526020600020905b81548152906001019060200180831161045d57829003601f168201915b5050505050815260200160048201805461049390610c3d565b80601f01602080910402602001604051908101604052809291908181526020018280546104bf90610c3d565b801561050c5780601f106104e15761010080835404028352916020019161050c565b820191906000526020600020905b8154815290600101906020018083116104ef57829003601f168201915b5050505050815260200160058201805461052590610c3d565b80601f016020809104026020016040519081016040528092919081815260200182805461055190610c3d565b801561059e5780601f106105735761010080835404028352916020019161059e565b820191906000526020600020905b81548152906001019060200180831161058157829003601f168201915b505050505081526020016006820180546105b790610c3d565b80601f01602080910402602001604051908101604052809291908181526020018280546105e390610c3d565b80156106305780601f1061060557610100808354040283529160200191610630565b820191906000526020600020905b81548152906001019060200180831161061357829003601f168201915b5050505050815260200160078201805461064990610c3d565b80601f016020809104026020016040519081016040528092919081815260200182805461067590610c3d565b80156106c25780601f10610697576101008083540402835291602001916106c2565b820191906000526020600020905b8154815290600101906020018083116106a557829003601f168201915b505050505081526020016008820154815250509050806000015181602001518260400151836060015184608001518560a001518660c001518760e00151886101000151995099509950995099509950995099509950509193959799909294969850565b6000604051905090565b600080fd5b600080fd5b600080fd5b600080fd5b6000601f19601f8301169050919050565b7f4e487b7100000000000000000000000000000000000000000000000000000000600052604160045260246000fd5b61078c82610743565b810181811067ffffffffffffffff821117156107ab576107aa610754565b5b80604052505050565b60006107be610725565b90506107ca8282610783565b919050565b600067ffffffffffffffff8211156107ea576107e9610754565b5b6107f382610743565b9050602081019050919050565b82818337600083830152505050565b600061082261081d846107cf565b6107b4565b90508281526020810184848401111561083e5761083d61073e565b5b610849848285610800565b509392505050565b600082601f83011261086657610865610739565b5b813561087684826020860161080f565b91505092915050565b600080600080600080600080610100898b0312156108a05761089f61072f565b5b600089013567ffffffffffffffff8111156108be576108bd610734565b5b6108ca8b828c01610851565b985050602089013567ffffffffffffffff8111156108eb576108ea610734565b5b6108f78b828c01610851565b975050604089013567ffffffffffffffff81111561091857610917610734565b5b6109248b828c01610851565b965050606089013567ffffffffffffffff81111561094557610944610734565b5b6109518b828c01610851565b955050608089013567ffffffffffffffff81111561097257610971610734565b5b61097e8b828c01610851565b94505060a089013567ffffffffffffffff81111561099f5761099e610734565b5b6109ab8b828c01610851565b93505060c089013567ffffffffffffffff8111156109cc576109cb610734565b5b6109d88b828c01610851565b92505060e089013567ffffffffffffffff8111156109f9576109f8610734565b5b610a058b828c01610851565b9150509295985092959890939650565b600060208284031215610a2b57610a2a61072f565b5b600082013567ffffffffffffffff811115610a4957610a48610734565b5b610a5584828501610851565b91505092915050565b600081519050919050565b600082825260208201905092915050565b60005b83811015610a98578082015181840152602081019050610a7d565b60008484015250505050565b6000610aaf82610a5e565b610ab98185610a69565b9350610ac9818560208601610a7a565b610ad281610743565b840191505092915050565b6000819050919050565b610af081610add565b82525050565b6000610120820190508181036000830152610b11818c610aa4565b90508181036020830152610b25818b610aa4565b90508181036040830152610b39818a610aa4565b90508181036060830152610b4d8189610aa4565b90508181036080830152610b618188610aa4565b905081810360a0830152610b758187610aa4565b905081810360c0830152610b898186610aa4565b905081810360e0830152610b9d8185610aa4565b9050610bad610100830184610ae7565b9a9950505050505050505050565b600081905092915050565b6000610bd182610a5e565b610bdb8185610bbb565b9350610beb818560208601610a7a565b80840191505092915050565b6000610c038284610bc6565b915081905092915050565b7f4e487b7100000000000000000000000000000000000000000000000000000000600052602260045260246000fd5b60006002820490506001821680610c5557607f821691505b602082108103610c6857610c67610c0e565b5b50919050565b60008190508160005260206000209050919050565b60006020601f8301049050919050565b600082821b905092915050565b600060088302610cd07fffffffffffffffffffffffffffffffffffffffffffffffffffffffffffffffff82610c93565b610cda8683610c93565b95508019841693508086168417925050509392505050565b6000819050919050565b6000610d17610d12610d0d84610add565b610cf2565b610add565b9050919050565b6000819050919050565b610d3183610cfc565b610d45610d3d82610d1e565b848454610ca0565b825550505050565b600090565b610d5a610d4d565b610d65818484610d28565b505050565b5b81811015610d8957610d7e600082610d52565b600181019050610d6b565b5050565b601f821115610dce57610d9f81610c6e565b610da884610c83565b81016020851015610db7578190505b610dcb610dc385610c83565b830182610d6a565b50505b505050565b600082821c905092915050565b6000610df160001984600802610dd3565b1980831691505092915050565b6000610e0a8383610de0565b9150826002028217905092915050565b610e2382610a5e565b67ffffffffffffffff811115610e3c57610e3b610754565b5b610e468254610c3d565b610e51828285610d8d565b600060209050601f831160018114610e845760008415610e72578287015190505b610e7c8582610dfe565b865550610ee4565b601f198416610e9286610c6e565b60005b82811015610eba57848901518255600182019150602085019450602081019050610e95565b86831015610ed75784890151610ed3601f891682610de0565b8355505b6001600288020188555050505b50505050505056fea26469706673582212202ec22bd719cb58165e51cc4b712fe0ffefe6c6567cf8ba5e7d6a8d5006d7c2d464736f6c63430008120033",
  "linkReferences": {},
  "deployedLinkReferences": {}
}